{
  "contractName": "Marketplace",
  "abi": [
    {
      "inputs": [],
      "payable": false,
      "stateMutability": "nonpayable",
      "type": "constructor"
    },
    {
      "anonymous": false,
      "inputs": [
        {
          "indexed": false,
          "internalType": "uint256",
          "name": "id",
          "type": "uint256"
        },
        {
          "indexed": false,
          "internalType": "string",
          "name": "name",
          "type": "string"
        },
        {
          "indexed": false,
          "internalType": "uint256",
          "name": "price",
          "type": "uint256"
        },
        {
          "indexed": false,
          "internalType": "address payable",
          "name": "owner",
          "type": "address"
        },
        {
          "indexed": false,
          "internalType": "bool",
          "name": "purchased",
          "type": "bool"
        }
      ],
      "name": "ProductCreated",
      "type": "event"
    },
    {
      "anonymous": false,
      "inputs": [
        {
          "indexed": false,
          "internalType": "uint256",
          "name": "id",
          "type": "uint256"
        },
        {
          "indexed": false,
          "internalType": "string",
          "name": "name",
          "type": "string"
        },
        {
          "indexed": false,
          "internalType": "uint256",
          "name": "price",
          "type": "uint256"
        },
        {
          "indexed": false,
          "internalType": "address payable",
          "name": "owner",
          "type": "address"
        },
        {
          "indexed": false,
          "internalType": "bool",
          "name": "purchased",
          "type": "bool"
        }
      ],
      "name": "ProductPurchased",
      "type": "event"
    },
    {
      "constant": true,
      "inputs": [],
      "name": "productCount",
      "outputs": [
        {
          "internalType": "uint256",
          "name": "",
          "type": "uint256"
        }
      ],
      "payable": false,
      "stateMutability": "view",
      "type": "function"
    },
    {
      "constant": true,
      "inputs": [
        {
          "internalType": "uint256",
          "name": "",
          "type": "uint256"
        }
      ],
      "name": "products",
      "outputs": [
        {
          "internalType": "uint256",
          "name": "id",
          "type": "uint256"
        },
        {
          "internalType": "string",
          "name": "name",
          "type": "string"
        },
        {
          "internalType": "uint256",
          "name": "price",
          "type": "uint256"
        },
        {
          "internalType": "address payable",
          "name": "owner",
          "type": "address"
        },
        {
          "internalType": "bool",
          "name": "purchased",
          "type": "bool"
        }
      ],
      "payable": false,
      "stateMutability": "view",
      "type": "function"
    },
    {
      "constant": false,
      "inputs": [
        {
          "internalType": "string",
          "name": "_name",
          "type": "string"
        },
        {
          "internalType": "uint256",
          "name": "_price",
          "type": "uint256"
        }
      ],
      "name": "createProduct",
      "outputs": [],
      "payable": false,
      "stateMutability": "nonpayable",
      "type": "function"
    },
    {
      "constant": false,
      "inputs": [
        {
          "internalType": "uint256",
          "name": "_id",
          "type": "uint256"
        }
      ],
      "name": "purchaseProduct",
      "outputs": [],
      "payable": true,
      "stateMutability": "payable",
      "type": "function"
    }
  ],
  "bytecode": "0x6080604052600060015534801561001557600080fd5b50610d39806100256000396000f3fe60806040526004361061003f5760003560e01c806338e76a03146100445780637acc0b2014610072578063e0f6ef8714610172578063e9300c6c1461019d575b600080fd5b6100706004803603602081101561005a57600080fd5b810190808035906020019092919050505061026f565b005b34801561007e57600080fd5b506100ab6004803603602081101561009557600080fd5b8101908080359060200190929190505050610803565b60405180868152602001806020018581526020018473ffffffffffffffffffffffffffffffffffffffff1673ffffffffffffffffffffffffffffffffffffffff16815260200183151515158152602001828103825286818151815260200191508051906020019080838360005b83811015610133578082015181840152602081019050610118565b50505050905090810190601f1680156101605780820380516001836020036101000a031916815260200191505b50965050505050505060405180910390f35b34801561017e57600080fd5b506101876108fe565b6040518082815260200191505060405180910390f35b3480156101a957600080fd5b5061026d600480360360408110156101c057600080fd5b81019080803590602001906401000000008111156101dd57600080fd5b8201836020820111156101ef57600080fd5b8035906020019184600183028401116401000000008311171561021157600080fd5b91908080601f016020809104026020016040519081016040528093929190818152602001838380828437600081840152601f19601f82011690508083019250505050505050919291929080359060200190929190505050610904565b005b610277610bca565b6000808381526020019081526020016000206040518060a001604052908160008201548152602001600182018054600181600116156101000203166002900480601f0160208091040260200160405190810160405280929190818152602001828054600181600116156101000203166002900480156103375780601f1061030c57610100808354040283529160200191610337565b820191906000526020600020905b81548152906001019060200180831161031a57829003601f168201915b50505050508152602001600282015481526020016003820160009054906101000a900473ffffffffffffffffffffffffffffffffffffffff1673ffffffffffffffffffffffffffffffffffffffff1673ffffffffffffffffffffffffffffffffffffffff1681526020016003820160149054906101000a900460ff1615151515815250509050600081606001519050600082600001511180156103e05750600154826000015111155b610452576040517f08c379a00000000000000000000000000000000000000000000000000000000081526004018080602001828103825260168152602001807f456c2070726f647563746f206e6f206578697374652e0000000000000000000081525060200191505060405180910390fd5b81604001513410156104af576040517f08c379a000000000000000000000000000000000000000000000000000000000815260040180806020018281038252602c815260200180610cd9602c913960400191505060405180910390fd5b816080015115610527576040517f08c379a00000000000000000000000000000000000000000000000000000000081526004018080602001828103825260208152602001807f456c2070726f647563746f207961206861207369646f20636f6d707261646f2e81525060200191505060405180910390fd5b3373ffffffffffffffffffffffffffffffffffffffff168173ffffffffffffffffffffffffffffffffffffffff1614156105c9576040517f08c379a000000000000000000000000000000000000000000000000000000000815260040180806020018281038252601c8152602001807f59612065726573206475656e686f2064656c2070726f647563746f2e0000000081525060200191505060405180910390fd5b33826060019073ffffffffffffffffffffffffffffffffffffffff16908173ffffffffffffffffffffffffffffffffffffffff168152505060018260800190151590811515815250508160008085815260200190815260200160002060008201518160000155602082015181600101908051906020019061064b929190610c11565b506040820151816002015560608201518160030160006101000a81548173ffffffffffffffffffffffffffffffffffffffff021916908373ffffffffffffffffffffffffffffffffffffffff16021790555060808201518160030160146101000a81548160ff0219169083151502179055509050508073ffffffffffffffffffffffffffffffffffffffff166108fc349081150290604051600060405180830381858888f19350505050158015610706573d6000803e3d6000fd5b507f79558d0d7d4d900e2f15c4cc0a665f1acdbe415e44de900ecdd1e5bf12b56f4e6001548360200151846040015133600160405180868152602001806020018581526020018473ffffffffffffffffffffffffffffffffffffffff1673ffffffffffffffffffffffffffffffffffffffff16815260200183151515158152602001828103825286818151815260200191508051906020019080838360005b838110156107c05780820151818401526020810190506107a5565b50505050905090810190601f1680156107ed5780820380516001836020036101000a031916815260200191505b50965050505050505060405180910390a1505050565b6000602052806000526040600020600091509050806000015490806001018054600181600116156101000203166002900480601f0160208091040260200160405190810160405280929190818152602001828054600181600116156101000203166002900480156108b55780601f1061088a576101008083540402835291602001916108b5565b820191906000526020600020905b81548152906001019060200180831161089857829003601f168201915b5050505050908060020154908060030160009054906101000a900473ffffffffffffffffffffffffffffffffffffffff16908060030160149054906101000a900460ff16905085565b60015481565b600082511161095e576040517f08c379a0000000000000000000000000000000000000000000000000000000008152600401808060200182810382526022815260200180610cb76022913960400191505060405180910390fd5b600081116109d4576040517f08c379a000000000000000000000000000000000000000000000000000000000815260040180806020018281038252601d8152602001807f456c2070726563696f206465626520736572206d61796f72206120302e00000081525060200191505060405180910390fd5b6001600081548092919060010191905055506040518060a0016040528060015481526020018381526020018281526020013373ffffffffffffffffffffffffffffffffffffffff168152602001600015158152506000806001548152602001908152602001600020600082015181600001556020820151816001019080519060200190610a62929190610c11565b506040820151816002015560608201518160030160006101000a81548173ffffffffffffffffffffffffffffffffffffffff021916908373ffffffffffffffffffffffffffffffffffffffff16021790555060808201518160030160146101000a81548160ff0219169083151502179055509050507fbc59c0c8165864dcceb377dd07d8f431d4303f8e501cb0a0374a10cc68d71836600154838333600060405180868152602001806020018581526020018473ffffffffffffffffffffffffffffffffffffffff1673ffffffffffffffffffffffffffffffffffffffff16815260200183151515158152602001828103825286818151815260200191508051906020019080838360005b83811015610b88578082015181840152602081019050610b6d565b50505050905090810190601f168015610bb55780820380516001836020036101000a031916815260200191505b50965050505050505060405180910390a15050565b6040518060a00160405280600081526020016060815260200160008152602001600073ffffffffffffffffffffffffffffffffffffffff1681526020016000151581525090565b828054600181600116156101000203166002900490600052602060002090601f016020900481019282601f10610c5257805160ff1916838001178555610c80565b82800160010185558215610c80579182015b82811115610c7f578251825591602001919060010190610c64565b5b509050610c8d9190610c91565b5090565b610cb391905b80821115610caf576000816000905550600101610c97565b5090565b9056fe446562657320696e74726f647563697220756e206e6f6d6272652076616c69646f2e4e6f206861732070616761646f206c6f20737566696369656e746520706f7220656c2070726f647563746f2ea265627a7a72315820c8326dcda0d2aac31cc793ed2389bd6f50ff5e67ef152c56b68cacb477f953cb64736f6c63430005100032",
  "source": "pragma solidity ^0.5.0;\r\n\r\ncontract Marketplace {\r\n    // Variables\r\n    mapping(uint => Product) public products; // Guarda los productos con su ID.\r\n    uint public productCount = 0; // Contador de productos que hay en el marketplace.\r\n\r\n    struct Product {\r\n        uint id;\r\n        string name;\r\n        uint price;\r\n        address payable owner;\r\n        bool purchased;\r\n    }\r\n\r\n    // Eventos\r\n    event ProductCreated(\r\n        uint id,\r\n        string name,\r\n        uint price,\r\n        address payable owner,\r\n        bool purchased\r\n    );\r\n\r\n    event ProductPurchased(\r\n        uint id,\r\n        string name,\r\n        uint price,\r\n        address payable owner,\r\n        bool purchased\r\n    );\r\n\r\n    // Constructor\r\n    constructor() public {\r\n\r\n    }\r\n\r\n    // Funciones\r\n    /**\r\n     * @notice Función que nos permite crear un producto.\r\n     * @param _name Nombre del producto.\r\n     * @param _price Precio del producto.\r\n     */\r\n    function createProduct(string memory _name, uint _price) public {\r\n        require(bytes(_name).length > 0, 'Debes introducir un nombre valido.');\r\n        require(_price > 0, 'El precio debe ser mayor a 0.');\r\n\r\n        productCount++; // Incrementa el contador de productos.\r\n        products[productCount] = Product(productCount, _name, _price, msg.sender, false); // Crea el producto y lo añade al mapping.\r\n\r\n        emit ProductCreated(productCount, _name, _price, msg.sender, false); // Emite el evento.\r\n    }\r\n\r\n    /**\r\n     * @notice Función que permite comprar un producto.\r\n     * @param _id Identificador del producto.\r\n     */\r\n    function purchaseProduct(uint _id) public payable {\r\n        Product memory _product = products[_id]; // Hago una copia del producto.\r\n        address payable _seller = _product.owner;\r\n\r\n        require(_product.id > 0 && _product.id <= productCount, 'El producto no existe.');\r\n        require(msg.value >= _product.price, 'No has pagado lo suficiente por el producto.');\r\n        require(!_product.purchased, 'El producto ya ha sido comprado.');\r\n        require(_seller != msg.sender, 'Ya eres duenho del producto.');\r\n\r\n        _product.owner = msg.sender; // Cambio el dueño del producto.\r\n        _product.purchased = true; // Indica que el producto ya ha sido comprado.\r\n        products[_id] = _product; // Actualiza el producto guardando la copia en el producto real.\r\n        address(_seller).transfer(msg.value); // Envía la cantidad pagada por el producto al dueño (Primer dueño).\r\n\r\n        emit ProductPurchased(productCount, _product.name, _product.price, msg.sender, true); // Emite el evento.\r\n    }\r\n}",
  "sourcePath": "C:\\Users\\Blanko\\Documents\\Santi\\Programming\\Blockchain\\Formación\\blockchain-marketplace\\src\\contracts\\Marketplace.sol",
  "compiler": {
    "name": "solc",
    "version": "0.5.16+commit.9c3226ce.Emscripten.clang"
  },
  "schemaVersion": "3.4.2",
  "updatedAt": "2021-09-14T12:54:07.480Z",
  "networkType": "ethereum",
  "devdoc": {
    "methods": {
      "createProduct(string,uint256)": {
        "params": {
          "_name": "Nombre del producto.",
          "_price": "Precio del producto."
        }
      },
      "purchaseProduct(uint256)": {
        "params": {
          "_id": "Identificador del producto."
        }
      }
    }
  },
  "userdoc": {
    "methods": {
      "createProduct(string,uint256)": {
        "notice": "Función que nos permite crear un producto."
      },
      "purchaseProduct(uint256)": {
        "notice": "Función que permite comprar un producto."
      }
    }
  }
}